:060000000A128A11FC2F18
:100EE8008312031386010800831686018312860184
:100EF8000800663083120313860008000F3083123F
:100F0800031386000330F2008A30F1005530F000F8
:100F1800F00B8C2FF10B8C2FF20B8C2F932FF030C2
:100F28008312031386000800AA3083120313860075
:100F38000330F2008A30F1005530F000F00BA22F98
:100F4800F10BA22FF20BA22FA92F553083120313F6
:100F5800860008000A128A1178270A128A110A12D2
:100F68008A117D270A128A110330F5008A30F400AD
:100F78005530F300F30BBE2FF40BBE2FF50BBE2F2D
:100F8800C52F0A128A1174270A128A110330F50034
:100F98008A30F4005530F300F30BD02FF40BD02F28
:100FA800F50BD02FD72F0A128A1198270A128A1107
:100FB8000330F5008A30F4005530F300F30BE22FCC
:100FC800F40BE22FF50BE22FE92F0A128A11822780
:100FD8000A128A110330F5008A30F4005530F30004
:100FE800F30BF42FF40BF42FF50BF42FFB2FB32F87
:080FF80083010A128A11AE2FD9
:02400E00393F38
:00000001FF
