:1000000000308A00A3280000FF00030E8301A10036
:100010000A08A0008A010408A2007708A300780853
:10002000A4007908A5007A08A600831383128C30F7
:100030008400801E1D288C1A2E2822088400230884
:10004000F7002408F8002508F9002608FA0020081F
:100050008A00210E8300FF0E7F0E09008A110A120A
:1000600031288C1E9F288C1E33281A08AD002D08BD
:10007000353C031D4B288316061083120614831685
:1000800086108312861483160611831206158316B2
:100090008611831286152D08313C031D53288316C3
:1000A0000610831206142D08323C031D5B288316AC
:1000B0008610831286142D08333C031D6328831693
:1000C0000611831206152D08343C031D6B28831678
:1000D0008611831286152D08363C031D7F28831652
:1000E000061083120610831686108312861083165C
:1000F00006118312061183168611831286112D08AC
:100100006A3C031D872883160610831206102D08EB
:100110006B3C031D8F2883168610831286102D08D2
:100120006C3C031D972883160611831206112D08B7
:100130006D3C031D9F2883168611831286118C1235
:100140008A110A121D2803081F3983008130831683
:100150009900A6309800903083129800AB01831666
:100160001F149F141F159F1107309C008313C0306C
:1001700083128B0483168C160F3086008601F030B4
:1001800083128600831606168312061AD52861305C
:100190000C1EC82899008316061083120614A80A9C
:1001A000831606168312061ED0288316861683121F
:1001B000861AE82862300C1EDB2899008316861008
:1001C00083128614A90A831686168312861EE328D4
:1001D000831606178312061BFB2863300C1EEE28BD
:1001E00099008316061183120615AA0A83160617AC
:1001F0008312061FF628831686178312861B0E2984
:1002000064300C1E0129990083168611831286150D
:10021000AB0A831686178312861F09292808023C19
:10022000031D1B2941300C1E13299900831606104B
:1002300083120610A8012908023C031D2829423018
:100240000C1E202999008316861083128610A9019E
:100250002A08023C031D352943300C1E2D29990024
:100260008316061183120611AA012B08023C031DF6
:10027000422944300C1E3A299900831686118312B4
:080280008611AB01C2286300E6
:02400E00723FFF
:00000001FF
;PIC16F877A
;CRC=0224  CREATED="24-Thg4-21 23:22"
