:1000000000308A00E0280000FF00030E8301A100F9
:100010000A08A0008A010408A2007708A300780853
:10002000A4007908A5007A08A600831383128C30F7
:100030008400001F1D280C1B2E2822088400230882
:10004000F7002408F8002508F9002608FA0020081F
:100050008A00210E8300FF0E7F0E09008A110A120A
:10006000DB28831605148312051C4A288316851481
:100070008312851C4A28831605158312051D4A28FC
:10008000831685158312851D4A28831685168312CB
:10009000851A312883168515831285195F288316E2
:1000A000061383120617831686138312861383168C
:1000B0000810831208148316881083128810831680
:1000C00085168312851A8028831606138312061359
:1000D000831686138312861383168810831288145E
:1000E0008316081083120810831608118312081152
:1000F000831688118312881183160812831208123E
:100100008316051483120518A4280130A900F430C1
:10011000A8002908F9002808F800F90CF80CF90CD7
:10012000F80CF90C78089500F90C790C3039F700C7
:100130001708CF3977049700831608118312081522
:1001400083168811831288118316851483128518EB
:10015000C728A9016430A8002908F9002808F80078
:10016000F90CF80CF90CF80CF90C78089500F90C5E
:10017000790C3039F7001708CF39770497008316C8
:1001800088118312881583160811831208118316AB
:10019000051583120519DA288316061340308312D9
:1001A000860683168613803083128606831608120D
:1001B00083120816080031200C138A110A121D2818
:1001C00003081F398300FF30AA0083161F149F14F1
:1001D0001F159F1107309C0083131F1383121F13D9
:1001E0009F1383169F1383121F140030F8001F08FB
:1001F000C73978049F00C0308B0483160C17003079
:10020000F8000538831292007C3083169200831226
:100210002A112A0883168700831207110C309700D1
:100220004B3095001708CF399700003083168800AF
:10023000880183128801FF30831685008312A7018D
:100240008B1BA7178B133120A71B8B171F2963004C
:02400E00713F00
:00000001FF
;PIC16F877A
;CRC=263E  CREATED="23-Thg3-21 09:32"
