:060000000A128A110C280F
:10000800FE00030EF0000A08F1000A128A111328F4
:100018000A128A110F2883010A128A113D285530C5
:10002800831203138800F201F301F401F501013092
:10003800F4070318F50A0030F50700307502C830D8
:1000480003197402031C1B280130F2070318F30A72
:100058000030F30702307302583003197202031C90
:1000680019288B1071088A00700E8300FE0E7E0E10
:10007800090088018316061488018101D030F60032
:0A00880076088B04831288014628D5
:00000001FF
