:060000000A128A110C280F
:10000800FE00030EF2000A08F3000A128A114328C0
:100018000A128A110F28F001F10183010A128A11CC
:100028001528831688018312880183160614831203
:1000380086018B170B16831601177008013E840082
:100048000A128A1133200A128A11831288000A3090
:1000580070067104031D2128F001F10121280030E8
:100068008A000408840A820700343F3406345B346B
:100078004F3466346D347D3407347F346F348B1CD1
:100088004C280130F0070318F10A0030F1078B10F3
:0E00980073088A00720E8300FE0E7E0E0900B1
:00000001FF
