:1000000000308A0065280000FF00030E8301A10074
:100010000A08A0008A010408A2007708A300780853
:10002000A4007908A5007A08A600831383128B1D0B
:100030001B280B182C28220884002308F70024080A
:10004000F8002508F9002608FA0020088A00210E89
:100050008300FF0E7F0E09008A110A122F280B1C45
:100060004C288B1D4C28061A39280130A700FA307D
:10007000A800861A3F280330A700C830A800061B36
:1000800045280730A7009630A800861B4B280F3064
:10009000A7006430A8000B100B108A110A121B284D
:1000A0002930840083130008031964280130F80004
:1000B000F701F70B5928F80B58284A30F700F70BCF
:1000C0005F286228800B5628080003081F39830028
:1000D000A70183161F149F141F159F1107309C0042
:1000E0008313F03086000F3083128600C0308B04FB
:1000F0008B15831601138312270886002808A90090
:0E010000502086012808A90050207C286300AA
:02400E00713F00
:00000001FF
;PIC16F877A
;CRC=FEEC  CREATED="13-Thg3-21 21:34"
