:060000000A128A11B72F5D
:100F6E0083010A128A11BB2F831603138801BF2F28
:100F7E00FF308312031388002A30F0000030F10096
:100F8E000A128A11DD270A128A11831203138801AD
:100F9E002A30F0000030F1000A128A11DD270A1201
:100FAE008A11BF2FBF2F0A128A110028073083160D
:100FBE0003138100F301F401F02FE52F0B1DE82F31
:100FCE00E92FE52F0B110130F3070318F40A003057
:100FDE00F4077408803AF2007108803A7202031D19
:100FEE00FA2F70087302031CFD2FFE2FE52FFF2F23
:020FFE000800E9
:02400E007A37FF
:00000001FF
