:060000000A128A11C32D53
:100B8600F801F901FA01FB0183010A128A11232EE9
:100B9600F201F301DA2DCF2D0B1DD22DD32DCF2D42
:100BA6000B110130F2070318F30A0030F30771083E
:100BB6007302031DE02D70087202031CE32DE42D61
:100BC600CF2DE52D0800F001F10103307102E93067
:100BD60003197002031CF02DF12DF32D032E032EA5
:100BE6000130F0070318F10A0030F10703307102F3
:100BF600E93003197002031C012E022EF32D032E79
:100C0600080002300A128A1144260A128A11283074
:100C16000A128A1144260A128A110E300A128A1101
:100C260044260A128A1106300A128A1144260A122A
:100C36008A1180300A128A1144260A128A11080083
:100C4600831603138710071000300718013086003B
:100C5600073081000E308B000A128A1104260A1210
:100C66008A11352E0A128A11A7270A128A110A1228
:100C76008A1152270A128A11352E352E0A128A1126
:100C86000028F4008312031307100F30F2007208D5
:100C960086057408F039F2007208860487140A1271
:100CA6008A11E6250A128A118312031387100A1283
:100CB6008A11E6250A128A110F30F2007208831291
:100CC600031386057408F20003300310F20DFF3E8D
:100CD600031D682E0310720DF039F30073088604A5
:100CE60087140A128A11E6250A128A11831203133F
:100CF60087100A128A11E6250A128A110800F400E2
:100D06008312031307140F30F20072088605740865
:100D1600F039F2007208860487140A128A11E62551
:100D26000A128A118312031387100A128A11E62502
:100D36000A128A110F30F200720883120313860515
:100D46007408F20003300310F20DFF3E031DA62EB9
:100D56000310720DF039F3007308860487140A1223
:100D66008A11E6250A128A118312031387100A12C2
:100D76008A11E6250A128A110800710870040319FF
:100D8600C52EC62EFC2EF5010314F50DD62E013008
:100D96000310F00DF10DFF3E031DCB2E0130F400C4
:100DA6007408F507D62EF11FD92EDA2ECA2EDC2EA0
:100DB600DC2E71087302031DE22E70087202031CFA
:100DC600E52EE62EED2E7008F2027108031CF303E1
:100DD600F302ED2E01300310F10CF00CFF3E031D63
:100DE600EE2E0130F502031DF92EFA2EDC2EFC2E16
:100DF600FC2E7308F101F1077208F001F007032FCA
:100E06000800F501F6017108700403190B2F0C2F69
:100E16004A2FF7010314F70D1C2F01300310F00DB4
:100E2600F10DFF3E031D112F0130F4007408F70782
:100E36001C2FF11F1F2F202F102F222F222F0130A2
:100E46000310F50DF60DFF3E031D232F71087302E7
:100E5600031D2F2F70087202031C322F332F3B2FD6
:100E66007008F2027108031CF303F30275143B2F9A
:100E760001300310F10CF00CFF3E031D3C2F013036
:100E8600F702031D472F482F222F4A2F4A2F760895
:100E9600F101F1077508F001F007512F08006330E2
:100EA600FA000030FB007B087A04031D5B2F5C2FE1
:100EB6005E2FA62FA62FC8300A128A1144260A12C0
:100EC6008A110A30F0000030F1007B08F301F307C5
:100ED6007A08F201F2070A128A1104270A128A1105
:100EE6007008303E0A128A1182260A128A110A30C6
:100EF600F0000030F1007B08F301F3077A08F201F5
:100F0600F2070A128A11C0260A128A117008303EA8
:100F16000A128A1182260A128A112A30F00000303B
:100F2600F1000A128A11CB250A128A110130FA023F
:100F36000030031CFB03FB027B087A04031DA42F6D
:100F4600A52F5E2FA62F0800FA01FB0100307B02B9
:100F5600643003197A02031CB12FB22FB42FFF2F6E
:100F6600FF2FC8300A128A1144260A128A110A3043
:100F7600F0000030F1007B08F301F3077A08F20174
:100F8600F2070A128A1104270A128A117008303EE3
:100F96000A128A1182260A128A110A30F0000030DB
:100FA600F1007B08F301F3077A08F201F2070A124F
:100FB6008A11C0260A128A117008303E0A128A1156
:100FC60082260A128A110830F0000030F1000A1257
:100FD6008A11CB250A128A110130FA070318FB0A77
:100FE6000030FB0700307B02643003197A02031CD1
:0A0FF600FD2FFE2FB42FFF2F08007F
:00000001FF
