:060000000A128A11122809
:10000800FE00030EF4000408F5000A08F600831247
:1000180003137F08F7000A128A116C2A0A128A1140
:10002800A32A83120313A601A11F1B281C28252815
:10003800A009A109A00A0319A10AA6010314A60D83
:100048002528A31F282829283328A209A309A20A9A
:100058000319A30A0130A4002408A6063328A7011F
:10006800A8012108200403193A283B287928A5016A
:100078000314A50D4B2801300310A00DA10DFF3E60
:10008800031D40280130A4002408A5074B28A11F00
:100098004E284F283F285128512801300310A70D1A
:1000A800A80DFF3E031D522821082302031D5E28C8
:1000B80020082202031C612862286A282008A2025C
:1000C8002108031CA303A30227146A280130031084
:1000D800A10CA00CFF3E031D6B280130A502031DD7
:1000E800762877285128792879282608031D7D281D
:1000F8008328A709A809A70A0319A80A8328280892
:10010800A101A1072708A001A0078A2808008316D3
:10011800031388010614861287100710810107301F
:100128008100D03083120313AF002F088B049C2862
:1001380086123230AF002F08B00047303002031C5F
:10014800A628A728A9289C289C2830080A128A11C2
:10015800C0210A128A11F43083120313A00001305F
:10016800A1000A128A118C220A128A11831203131F
:100178003008463A031DC128C228EB284630AF0094
:100188002F08B000323030020318CB28CC28CE28F4
:10019800EB28EB2830080A128A1163210A128A1107
:1001A800E83083120313A0000330A1000A128A1159
:1001B8008C220A128A11013083120313B0023230E2
:1001C80030020318E828E928CE28EB28EB2801306C
:1001D800AF002F08B00747303002031CF428F52879
:1001E800A9289C289C289C280A128A111228831264
:1001F8000313A601A31F012902290B29A209A30998
:10020800A20A0319A30AA6010314A60D0B29A11F0C
:100218000E290F291529A009A109A00A0319A10A65
:1002280015292108200403191A291B295129A50178
:100238000314A50D2B2901300310A00DA10DFF3EBD
:10024800031D20290130A4002408A5072B29A11F7C
:100258002E292F291F293129312921082302031D7D
:10026800372920082202031C3A293B294229200861
:10027800A2022108031CA303A30242290130031090
:10028800A10CA00CFF3E031D43290130A502031D4C
:100298004E294F293129512951292608031D55294D
:1002A8005B29A209A309A20A0319A30A5B29230847
:1002B800A101A1072208A001A00762290800831252
:1002C8000313AC000A30A0000030A1002C08A900DC
:1002D800AA012908A2002A08A3000A128A111520D7
:1002E8000A128A11831203132008AB002B08AD00F1
:1002F8000A30A0000030A1002C08A900AA01290892
:10030800A2002A08A3000A128A11FB200A128A11E5
:10031800831203132008AB002B08AE002D08313ED2
:10032800840083130008A9002908AD002E08313E77
:1003380084000008A9002908AE002D0888000714C9
:100348006430A4000030A5000A128A1149220A125A
:100358008A118312031307102E088800871464304B
:10036800A4000030A5000A128A1149220A128A1133
:10037800831203138710080083120313AC000A309A
:10038800A0000030A1002C08A900AA012908A20099
:100398002A08A3000A128A1115200A128A11831248
:1003A80003132008AB002B08AD000A30A000003072
:1003B800A1002C08A900AA012908A2002A08A30064
:1003C8000A128A11FB200A128A11831203132008C9
:1003D800AB002B08AE002D08313E840083130008C3
:1003E800A9002908AD002E08313E84000008A900A4
:1003F8002908AE002D08880007146430A4000030D6
:10040800A5000A128A1149220A128A1183120313BB
:1004180007102E08880087146430A4000030A50057
:100428000A128A1149220A128A11831203138710A9
:100438000800F201F3017308803AFF0080307F0260
:10044800031D282A2A307202031C2B2A2C2A2F2A41
:10045800482A482A2F2A0B1D322A332A2F2A0B1101
:100468000130F2070318F30A0030F3077308803AE3
:10047800FF0080307F02031D432A2A307202031CCA
:10048800462A472A2F2A482A080083120313A6015E
:10049800A701602A7830A0000030A1000A128A1152
:1004A8008C220A128A11013083120313A60703183B
:1004B800A70A0030A707602A25082702031D662A15
:1004C80024082602031C692A6A2A4E2A6B2A080075
:1004D8007C2A2A30F0000030F1000A128A111D220D
:1004E8000A128A1120308312031386068B107C2A85
:1004F800061C7F2A802A6D2A812A7708FF00760841
:100508008A0075088400740E8300FE0E7E0E0900B2
:1005180083120313A201A301972A0130A20703182B
:10052800A30A0030A30723082102031D9D2A2208DD
:1005380020020318A02AA12A912AA22A08008313BC
:100548003B30FD000230FE00C630FF003130840031
:100558000A128A11B9220A128A1183010A128A110F
:100568008B287E088A007F088200B5220A128A1129
:100578008000840A04087D0603190034FF0A031961
:10058800FE0AB92AC034F934A434B0349934923408
:080598008234F8348034903401
:02400E007AFF37
:00000001FF
