:1000000003308A00A12B00003118082808120928A3
:100010000816831608128312B118102888121128A6
:100020008816831688128312311918280813192884
:100030000817831608138312B11920288813212862
:1000400088178316881383120800323084008313C4
:100050000008031939280130F800F701F70B2E28A2
:10006000F80B2D284A30F700F70B34283728800B7F
:100070002B28080083168811831288153F2800005A
:1000800083168811831288110330B20025200800DE
:10009000B00E3008B10004203A20B00E3008B10094
:1000A00004203A200800B1010420C830B200252005
:1000B00083160811831208110330B10004203A207E
:1000C0003A203A200230B10004203A202C30B0000F
:1000D00048200C30B00048200630B00048200130E5
:1000E000B00048208A110A12C22B8E30F700300867
:1000F000F7023108F9003208F800F917F708031978
:100100008C280310F908031D8828F80803198C2887
:10011000F90CF80CF70B8128B11F9328F809F9099D
:10012000F80A0319F90A8A110A12D22B3308F801C6
:10013000320203189E283208F700AA28F701083077
:10014000B400B20DF70D330877020318F700F80D6D
:10015000B40BA12808003108B2000A30B300962081
:100160007808AE003108B2000A30B3009620770854
:10017000AF0020302E07840083130008860007118B
:100180000130B2002520071520302F07840083138B
:100190000008860087100130B200252087149C30AB
:1001A000860087110130B20025208715C6308600F1
:1001B00007120130B200252007168A110A12D62B29
:1001C00083161F1383121F179F1783169F178312FF
:1001D0001F1483161F109F141F159F150030F80061
:1001E00083121F08C73978049F002130F700F70BEE
:1001F000F7288A110A12D72B8E30F7003108F80041
:100200003008F900FA01F808031D10297908F800F0
:10021000F9010830F702F808031D1029F701182921
:100220000310F81B1729F90DF80DF7031029F8131F
:100230008A110A12E32B300803198B29B8003408FD
:1002400003198B29B80703182C297F30B802031C27
:100250008B2903198B2930298130B80703188B2982
:100260003808F700F801F901FA013108BC00BC17A1
:100270003208BB003308BA001830B800B9013A1C84
:1002800059293708FA07031C4B29F90A031D4B2982
:10029000F80A0319B9173608F907031C5229F80A96
:1002A0000319B9173508B200B2173208F807031856
:1002B000B917B90DF80CF90CFA0CBC0CBB0CBA0C44
:1002C0000310B80B3E290130F70703188B29F81BE0
:1002D0007029BC0DFA0DF90DF80DF70303198B29E0
:1002E000BC1F8129FA0A031D8129F90A031D8129EE
:1002F000F80A031D8129F80CF90CFA0CF70A031906
:100300008B293108B9003508B906B91F8929F817B2
:100310008F29F8138F29F701F801F901FA018A11E1
:100320000A12FC2B34080319572AC0003808031995
:10033000572AC002031CA1297F30C0070318572A7F
:10034000A7298130C002031C572A0319572A4008E5
:10035000F700F801F901FA01BF013508BE00BE1728
:100360003608BD003708BC001930C0003B08BC028D
:100370000318CA290130BD020318CA29BE02031896
:10038000CA29BF020318CA29BF0ABE0ABD0A3B0810
:10039000BC07FC293A08BD020318E5290130BE025A
:1003A0000318E529BF020318E529BF0ABE0A3A0867
:1003B000BD073B08BC07031CFC29BD0A031DFC2923
:1003C000BE0A031DFC29BF0AFC2939088038BE0279
:1003D0000318FB290130BF020318FB29BF0A3908A3
:1003E0008038BE073A08BD07031CD929BE0A031D81
:1003F000D929BF0AD9297A14C00BFF290A2A031068
:10040000BC0DBD0DBE0DBF0D0310FA0DF90DF80D9D
:10041000C10DB629411C122A0310F80CF90CFA0C74
:10042000C10C152AF7030319572AC11B3E2A0310D2
:10043000BC0DBD0DBE0DBF0D3B08BC0203182A2A22
:100440000130BD0203182A2ABE0203182A2ABF025D
:10045000031C4D2A3A08BD020318352A0130BE029A
:100460000318352ABF02031C4D2A39088038BE0202
:1004700003183E2A0130BF02031C4D2AFA0A031D4D
:100480004D2AF90A031D4D2AF80A031D4D2AF70AC1
:100490000319572AF80CF90CFA0C3508C000390872
:1004A000C006C01F552AF8175B2AF8135B2AF7010C
:1004B000F801F901FA018A110A12122C803083180E
:1004C000B906BE01BF013508BD003908BD063408B4
:1004D00003194E2BBC00F70038080319572BBC0238
:1004E0000319F32A031CB12A3908C200C2173A08BB
:1004F000C1003B08C000BF010310C20CC10CC00CFE
:10050000BF0CBC0B7B2ABD1F882A3E146B2B3E10F0
:100510003C103E16373084008313802B3E12BD1BE7
:100520009B2A3C1CA62AC20CC10CC00CBF0CF70AAB
:100530000319662BA62AC21BA92A0310BF0DC00DE2
:10054000C10DC20DF7030319662B9B2A3E17132B0F
:100550003E133508BD00BD1FAF2AC2175F2BC21363
:100560005F2B3808BC00F7003408BC023508C20015
:10057000C2173608C1003708C000BF010310C20C03
:10058000C10CC00CBF0CBC0BBD2ABD1FCA2ABE14B7
:100590006B2BBE103C10BE163B3084008313802BA7
:1005A000BE12BD1BDD2A3C1CE82AC20CC10CC00CCB
:1005B000BF0CF70A0319662BE82AC21BEB2A0310AB
:1005C000BF0DC00DC10DC20DF7030319662BDD2A47
:1005D000BE17132BBE133908BD00BD1FF12AC21769
:1005E0005F2BC2135F2B3908C200C2173A08C10043
:1005F0003B08C000BD1F002BC2133E156B2B3E11E4
:10060000BF013C10373084008313802BBD1B292B86
:100610003508BD003C1C132BC20CC10CC00CBF0C18
:10062000F70A0319662BBF1F242BC00A031D242BB6
:10063000C10A031D242BC20A031D242BC20CC10CAA
:10064000C00CF70A0319662B3E1BA82ABE1BEA2A18
:10065000482B8030C206C21F312B6B2B3908BD00DE
:100660003E2B3508BD00C208031D3E2BC108031DEB
:100670003E2BC008031D3E2BF7015F2BC21B482BEE
:100680000310BF0DC00DC10DC20DF70B3E2B662B25
:10069000BD1F4C2BC2175F2BC2135F2B3808F7000E
:1006A0003908C2003A08C1003B08C0005F2B34087B
:1006B000F7003508C2003608C1003708C0004208FC
:1006C000F8004108F9004008FA009E2BF701F801F4
:1006D000F901FA019E2BBF01C009C109C209BF0976
:1006E000BF0A031D792BC00A031D792BC10A031908
:1006F000C20A3E18872ABE18C92A3E19FF2A2E2B85
:100700000008C007031C8A2BC10A031D8A2BC20ADA
:1007100003193C1484030008C107031C922BC20A6E
:1007200003193C1484030008801F803AC207031891
:100730003C143E1A8E2ABE1AD02A062B8A110A129F
:100740002B2C840183131F30830583161F149F14E1
:100750001F159F1107309C00C0308312A000F93094
:10076000A100A430A200B030A3009930A4009230C0
:10077000A5008230A600F830A7008030A800903095
:10078000A900532801308316850087018601831252
:1007900087012D08B3002C08B2002B08B1002A08ED
:1007A000B00075287808B000B100AB28E0281F150C
:1007B0001F19D82B1E08FA0083161E088312B000DA
:1007C0001E08B100FC287A08AD007908AC00780852
:1007D000AB007708AA001A30B3006730B2001C30B3
:1007E000B1008130B0002D08B7002C08B6002B08EE
:1007F000B5002A08B4001B297708B0007808B100BA
:100800007908B2007A08B300B7007908B600780812
:10081000B5007708B400BB01BA012030B9008230BE
:10082000B80092297708B0007808B1007908B200C2
:100830007A08B30083147A08B7007908B6007808FC
:10084000B5007708B400BB018030BA000830B900A9
:100850008730B8005E2A7A08AD007908AC007808C5
:0A086000AB007708AA00C92B630063
:02400E00733FFE
:00000001FF
;PIC16F877A
;CRC=A368  CREATED="27-Oct-15 22:51"
