:100000000A128A11792E00308A000408840A8207B5
:1000100000343F3406345B344F3466346D347D3401
:0600200007347F346F3449
:100CF200A001A101A201A301A401A501A601A701CE
:100D020083010A128A11992FF301F401942E892E7C
:100D12000B1D8C2E8D2E892E0B110130F30703181B
:100D2200F40A0030F4077408803AF2007108803A3D
:100D32007202031D9E2E70087302031CA12EA22EA6
:100D4200892EA32E0800710870040319A92EAA2E59
:100D5200E02EF5010314F50DBA2E01300310F00D4B
:100D6200F10DFF3E031DAF2E0130F4007408F507AC
:100D7200BA2EF11FBD2EBE2EAE2EC02EC02E710871
:100D82007302031DC62E70087202031CC92ECA2EDE
:100D9200D12E7008F2027108031CF303F302D12E64
:100DA20001300310F10CF00CFF3E031DD22E013076
:100DB200F502031DDD2EDE2EC02EE02EE02E73087E
:100DC200F101F1077208F001F007E72E0800F501C2
:100DD200F601710870040319EF2EF02E2E2FF70181
:100DE2000314F70D002F01300310F00DF10DFF3E3B
:100DF200031DF52E0130F4007408F707002FF11FD0
:100E0200032F042FF42E062F062F01300310F50DA9
:100E1200F60DFF3E031D072F71087302031D132FEA
:100E220070087202031C162F172F1F2F7008F20270
:100E32007108031CF303F30275141F2F0130031012
:100E4200F10CF00CFF3E031D202F0130F702031DB1
:100E52002B2F2C2F062F2E2F2E2F7608F101F10784
:100E62007508F001F007352F08000A30F000003055
:100E7200F1007D08F301F3077C08F201F2070A1280
:100E82008A11E8260A128A11710883120313A50136
:100E9200A5077008A401A4070A30F0000030F10091
:100EA2007D08F301F3077C08F201F2070A128A11A6
:100EB200A4260A128A11710883120313A701A70735
:100EC2007008A601A6072408013E84000A128A11AE
:100ED20003200A128A11860007100530FA008D30AD
:100EE200F900D130F800F80B742FF90B742FFA0BBC
:100EF200742F64008312031307142608013E840032
:100F02000A128A1103200A128A11860087100530FC
:100F1200FA008D30F900D130F800F80B8E2FF90B62
:100F22008E2FFA0B8E2F640083120313871408008E
:100F320007308316031381000E30FB007B088B04FD
:100F42008601831203138601831603138701A92FD7
:100F5200FC01FD0100307D02643003197C02031C98
:100F6200B32FB42FB62FD42FD42F0A128A113627BB
:100F72000A128A112A30F0000030F1000A128A1196
:100F820085260A128A110130FC070318FD0A003077
:100F9200FD0700307D02643003197C02031CD22F4E
:100FA200D32FB62FD42F6330FC000030FD007D0814
:100FB2007C04031DDD2FDE2FE02FA92FA92F0A129B
:100FC2008A1136270A128A111530F0000030F1001A
:100FD2000A128A1185260A128A110130FC02003097
:100FE200031CFD03FD027D087C04031DF92FFA2F6B
:0E0FF200E02FA92FA92FA92F0A128A1100287B
:02400E007AFF37
:00000001FF
