:1000000005308A00CA2D0000FF00030E8301A10005
:100010000A08A0008A010408A2007708A300780853
:10002000A4007908A5007A08A600831383128C30F7
:100030008400001C1D280C182E2822088400230888
:10004000F7002408F8002508F9002608FA0020081F
:100050008A00210E8300FF0E7F0E09008A110A120A
:10006000E0290A108A100A118207C034F934A43436
:10007000B034993492348234F83480349034083077
:10008000F8000430F700F70B43288711A81128085F
:10009000831687000330F700F70B4C288312CC0D32
:1000A0000712031C592828162808831687005D2884
:1000B0008312281228088316870000008312A815CF
:1000C0002808831687008312871D6428F80B4128AF
:1000D0000430F700F70B6A288711A8112808831647
:1000E0008700000083122816280883168700033033
:1000F000F700F70B79280330F700F70B7D28831200
:10010000A8152808831687008312871D8528F80103
:100110000330F700F70B8A28071A78148711A81103
:1001200028088316870083120712281228088316CE
:100130008700831208000830CD007708CE0028160B
:100140002808831687000330F700F70BA5288312D1
:10015000A8152808831687008312871DAD28071A63
:100160000314071E0310F80D0430F700F70BB62830
:10017000A81128088316870083128711CD0B9F28AA
:1001800028162808831687000330F700F70BC628C7
:10019000831207124E080319D22828122808831642
:1001A000870083120000A815280883168700831291
:1001B000871DD8280430F700F70BDC288711A81119
:1001C0002808831687000330F700F70BE528831211
:1001D00007122812280883168700831208004D088A
:1001E000CE000310CE0C7830CE054E0CF700F70C85
:1001F0003F30F70577084E07CF004D080F394F07FE
:10020000F80008004F08F8014E0203180A294E08AA
:10021000F7001629F7010830D000CE0DF70D4F0872
:1002200077020318F700F80DD00B0D2908004808D5
:10023000093C031C222930304807CE004E080C1E12
:100240001F2999004808093C031846294808633CBF
:10025000031C46294808CE000A30CF000221780846
:10026000C9004808CE000A30CF0002217708CA0032
:1002700030304907CE004E080C1E3C299900303022
:100280004A07CE004E080C1E432999004808633CDB
:1002900003189F294808CE006430CF000221780857
:1002A000CB004808CE000A30CF0002217808CE00EB
:1002B0000A30CF004B08D000F701F8014F080310B7
:1002C0005018F707F70CF80CD018F707F70CF80CD4
:1002D0005019F707F70CF80CD019F707F70CF80CC2
:1002E000501AF707F70CF80CD01AF707F70CF80CB0
:1002F000501BF707F70CF80CD01BF707F70CF80C9E
:1003000078084E02CC004808CE000A30CF00022107
:100310007708CD0030304B07CE004E080C1E8E29DA
:10032000990030304C07CE004E080C1E95299900DC
:1003300030304D07CE004E080C1E9C299900080055
:100340002811280883168700831207114908CA005C
:100350008030CC00CB014B08073C031CD929281066
:10036000280883168700831207104A084C050319D2
:10037000C029A81028088316870083128714C6296D
:10038000A8102808831687008312871028102808D1
:100390008316870083120714CD29CE290000281068
:1003A000280883168700831207100310CC0CCB0A91
:1003B000AB29281128088316870083120715080027
:1003C0008E010B308F00DB308E0028162808831634
:1003D00087000430F700F70BEB298312A8152808D3
:1003E000831687000330F700F70BF42983120712F6
:1003F00028122808831687000430F700F70BFE291F
:1004000083128711A811280883168700D030831221
:10041000CC003F200330CC003F202816280883164C
:1004200087000430F700F70B132A8312A815280859
:10043000831687000330F700F70B1C2A8312871DF1
:100440001F2A071228122808831687000430F70095
:10045000F70B282A83128711A81128088316870012
:10046000D1308312CC003F200130F7009B20780868
:100470007F39C800CD00EF207808AF000130F700C9
:100480009B2078083F39C800CD00EF207808AC00E9
:100490000130F7009B2078081F39C800CD00EF20FD
:1004A0007808AD00F7019B207808C800CD00EF2048
:1004B0007808AE00281228088316870000008312EF
:1004C000A8152808831687008312871D652A043023
:1004D000F700F70B692A6C2A0000281628088316F3
:1004E00087000430F700F70B732A831228162808B8
:1004F000831687000430F700F70B7C2A8312A815B7
:100500002808831687000330F700F70B852A83122B
:10051000071228122808831687000430F700F70B0B
:100520008F2A83128711A811280883168700D030DC
:100530008312CC003F20CC013F20281628088316C8
:1005400087000430F700F70BA32A8312A8152808A8
:10055000831687000330F700F70BAC2A8312871D40
:10056000AF2A071228122808831687000430F700E4
:10057000F70BB82A83128711A81128088316870061
:10058000D1308312CC003F200130F7009B20780847
:100590007F39C800CD00EF207808A9000130F700AE
:1005A0009B2078087F39C800CD00EF207808AA008A
:1005B000F7019B2078083F39C800CD00EF2078086C
:1005C000AB00281228088316870000008312A815A4
:1005D0002808831687008312871DEC2A0430F70051
:1005E000F70BF02AF32A0000281628088316870044
:1005F0000430F700F70BFA2A83122B08C8001721E2
:100600002D300C1E012B99002A08C80017212D300F
:100610000C1E082B99002908C80017210A300C1E4F
:100620000F2B99002B08CE000A30CF00022178084A
:10063000B1002B08CE000A30CF0002217708B200AB
:100640002A08CE000A30CF0002217808B3002A0819
:10065000CE000A30CF0002217708B4002908CE006E
:100660000A30CF0002217808B5002908CE000A30F0
:10067000CF0002217708B6002C08CE000A30CF0048
:1006800002217808B7002C08CE000A30CF000221E2
:100690007708B8002D08CE000A30CF000221780874
:1006A000B9002D08CE000A30CF0002217708BA0029
:1006B0002E08CE000A30CF0002217808BB002E0899
:1006C000CE000A30CF0002217708BC003C08312060
:1006D000C800C900A0213B083120C800C900A021E2
:1006E0003A083120C800C900A02139083120C800CB
:1006F000C900A02138083120C800C900A02137084E
:100700003120C800C900A0210C108A110A121D282E
:10071000281028088316870083120710A8102808BD
:1007200083168700831287102811280883168700F4
:10073000831207118A110A12F02D4408C500C60160
:100740004508093C0318A92B0A30C5021030C6071A
:10075000AC2B4508C607AD2BA02B4608F8000800B7
:10076000BD01BE01BF01C001C101C201C301281604
:100770002808831687000430F700F70BBD2B83127F
:10078000A8152808831687000330F700F70BC62B3F
:100790008312071228122808831687000430F700F6
:1007A000F70BD02B83128711A81128088316870016
:1007B0008312A7018B1BA7178B13D030CC003F20CF
:1007C000A71B8B17A7018B1BA7178B13CC013F20EF
:1007D000A71B8B1728162808831687000430F700FC
:1007E000F70BF02B8312A815280883168700033017
:1007F000F700F70BF92B8312871DFC2B0712281229
:100800002808831687000430F700F70B052C8312A5
:100810008711A8112808831687008312A7018B1B54
:10082000A7178B13D130CC003F20A71B8B170130AB
:10083000F700A7018B1BA7178B139B20A71B8B17F8
:1008400078087F39C400A7018B1BA7178B134408B6
:10085000CD00EF20A71B8B177808BD000130F700F3
:10086000A7018B1BA7178B139B20A71B8B1778083F
:100870007F39C400A7018B1BA7178B134408CD0039
:10088000EF20A71B8B177808BE000130F700A701E7
:100890008B1BA7178B139B20A71B8B1778083F393F
:1008A000C400A7018B1BA7178B134408CD00EF20B2
:1008B000A71B8B177808BF000130F700A7018B1B1F
:1008C000A7178B139B20A71B8B1778087F39C400B1
:1008D000A7018B1BA7178B134408CD00EF20A71B84
:1008E0008B177808C0000130F700A7018B1BA717F2
:1008F0008B139B20A71B8B1778083F39C400A701D7
:100900008B1BA7178B134408CD00EF20A71B8B1759
:100910007808C1000130F700A7018B1BA7178B13C4
:100920009B20A71B8B1778081F39C400A7018B1BBE
:10093000A7178B134408CD00EF20A71B8B1778084F
:10094000C200F701A7018B1BA7178B139B20A71BC6
:100950008B177808C400A7018B1BA7178B13780887
:10096000CD00EF20A71B8B177808C300281228089A
:100970008316870000008312A815280883168700B5
:100980008312871DC12C0430F700F70BC52CC82C2F
:10099000000028162808831687000430F700F70B9C
:1009A000CF2C0430F700F70BD32CD62C831228164B
:1009B0002808831687000430F700F70BDD2C83121C
:1009C000A8152808831687000330F700F70BE62CDC
:1009D0008312071228122808831687000430F700B4
:1009E000F70BF02C83128711A811280883168700B3
:1009F0008312A7018B1BA7178B13D030CC003F208D
:100A0000A71B8B17A7018B1BA7178B13CC013F20AC
:100A1000A71B8B173D08C4009D237808C400A701BD
:100A20008B1BA7178B137808CC003F20A71B8B17B5
:100A30003E08C4009D237808C400A7018B1BA7179C
:100A40008B137808CC003F20A71B8B173F08C400EE
:100A50009D237808C400A7018B1BA7178B13780868
:100A6000CC003F20A71B8B174008C4009D237808AB
:100A7000C400A7018B1BA7178B137808CC003F205D
:100A8000A71B8B174108C4009D237808C400A70149
:100A90008B1BA7178B137808CC003F20A71B8B1745
:100AA0004208C4009D237808C400A7018B1BA71728
:100AB0008B137808CC003F20A71B8B174308C4007A
:100AC0009D237808C400A7018B1BA7178B137808F8
:100AD000CC003F20A71B8B172816280883168700F9
:100AE0000430F700F70B722D8312A815280883161F
:100AF00087000330F700F70B7B2D8312871D7E2DB7
:100B0000071228122808831687000430F700F70B15
:100B1000872D83128711A811280883168700831256
:100B2000A7018B1BA7178B13D030CC003F20A71B2E
:100B30008B17A7018B1BA7178B130730CC003F2007
:100B4000A71B8B17A7018B1BA7178B139030CC000B
:100B50003F20A71B8B172812280883168700000048
:100B60008312A8152808831687008312871DB62DC7
:100B70000430F700F70BBA2DBD2D00002816280809
:100B8000831687000430F700F70BC42D83128A11F7
:100B90000A12F72D03081F398300FF30A8008130A7
:100BA00083169900A6309800903083129800B00107
:100BB00083161F149F141F159F1107309C00831369
:100BC000003087008312A800831688000130860059
:100BD00000308312A8008316870183128701882BB7
:100BE0000B1683160113C03083128B04B02BB53063
:100BF000900083160C14831231083120BD00831637
:100C0000880183123D08880083168610831286149B
:100C1000A630F700F70B0A2E000083168610831209
:100C2000861032083120BD008316880183123D08EA
:100C300088008316061183120615A630F700F70BFD
:100C40001F2E00008316061183120611330831206F
:100C5000BD008316880183123D0888008316861123
:100C600083128615A630F700F70B342E000083168A
:100C700086118312861134083120BD008316880145
:100C800083123D0888008316061283120616A630CA
:100C9000F700F70B492E0000831606128312061286
:100CA00035083120BD008316880183123D08880075
:100CB0008316861283128616A630F700F70B5E2E77
:100CC0000000831686128312861236083120BD007A
:100CD0008316880183123D08880083160613831249
:100CE0000617A630F700F70B732E000083160613C5
:080CF00083120613FC2D6300C2
:02400E003A3F37
:00000001FF
;PIC16F877A
;CRC=0CBD  CREATED="18-Thg6-21 12:52"
