:060000000A128A114A2ECB
:100C940083010A128A11812EFF3083120313880004
:100CA4000A128A115B260A128A118312031388011D
:100CB4000800F001F1017108803AFF0093307F02CF
:100CC400031D662E88307002031C692E6A2E6C2E5A
:100CD400802E802E0130F0070318F10A0030F1074E
:100CE4007108803AFF0093307F02031D7B2E883009
:100CF4007002031C7E2E7F2E6C2E802E080083161D
:100D0400031388018614862E0A128A110D270A12EB
:100D14008A110A128A1144270A128A110A128A11A4
:100D24004E260A128A110A128A11A9260A128A1157
:100D34000A128A11D8260A128A110A128A119E27C7
:100D44000A128A11862E862E0A128A110028F201AE
:100D5400F3017308803AFF0080307F02031DB42E34
:100D640008307202031CB72EB82EBA2ED72ED72EF7
:100D7400031483120313880D0A128A115B260A12C4
:100D84008A110130F2070318F30A0030F3077308DD
:100D9400803AFF0080307F02031DD22E0830720299
:100DA400031CD52ED62EBA2ED72E08000830F300F9
:100DB4000030F4007408803AFF0080307F02031D85
:100DC400E52E013073020318E82EE92EEB2E0C2FCA
:100DD4000C2F831203130808F2000310720C01385D
:100DE40088000A128A115B260A128A11FF30F3075F
:100DF4000318F40AFF30F4077408803AFF008030C7
:100E04007F02031D072F0130730203180A2F0B2FD3
:100E1400EB2E0C2F0800F201F3017308803AFF0057
:100E240080307F02031D182F03307202031C1B2F16
:100E34001C2F1E2F432F432FFF30831203138800D0
:100E44000A128A115B260A128A118312031388017B
:100E54000A128A115B260A128A110130F20703185A
:100E6400F30A0030F3077308803AFF0080307F02F2
:100E7400031D3E2F03307202031C412F422F1E2FED
:100E8400432F0800F301F4017408803AFF00803016
:100E94007F02031D4F2F08307302031C522F532F60
:100EA400552F6D2F6D2F031483120313880D0130FA
:100EB400F3070318F40A0030F4077408803AFF00BB
:100EC40080307F02031D682F08307302031C6B2FD0
:100ED4006C2F552F6D2FF501F6017608803AFF002F
:100EE40080307F02031D782F08307502031C7B2F8E
:100EF4007C2F7E2F9D2F9D2F831203130808F20051
:100F0400720788000A128A115B260A128A110130BC
:100F1400F5070318F60A0030F6077608803AFF0052
:100F240080307F02031D982F08307502031C9B2F0D
:100F34009C2F7E2F9D2F08000830F3000030F40012
:100F44007408803AFF0080307F02031DAB2F01300C
:100F540073020318AE2FAF2FB12FCD2FCD2F8312D5
:100F640003130808F2000310720C01388800FF30E4
:100F7400F3070318F40AFF30F4077408803AFF00FB
:100F840080307F02031DC82F013073020318CB2F5A
:100F9400CC2FB12FCD2F0830F5000030F6007608A5
:100FA400803AFF0080307F02031DDA2F0130750282
:100FB4000318DD2FDE2FE02FFF2FFF2F83120313E3
:100FC4000808F200720788000A128A115B260A12C6
:100FD4008A11FF30F5070318F60AFF30F607760882
:100FE400803AFF0080307F02031DFA2F0130750222
:0C0FF4000318FD2FFE2FE02FFF2F080038
:02400E007A37FF
:00000001FF
