:100000000A128A11942F00308A000408840A820799
:1000100000342834423469346E34683420344E3429
:1000200047344F342034743465347334743420349A
:100030005534533441345234543429343A3420340E
:100040004E3468346134703420346B347934203465
:10005000743475342034743475342034623461342B
:100060006E3420347034683469346D3420346D3427
:10007000613479342034743469346E3468343A34F9
:080080000A340D340D34003484
:100F280083010A128A11C02F992F831203138C1E72
:100F38009E2F9F2F992F8C121A08A22F0800F000BD
:100F48007008831203139900A92F0C1EAC2FAD2F24
:100F5800A92F0C1208002030831603139800903034
:100F68008312031398001130831603139900831218
:100F780003138C120C120800831603130713871728
:100F88000A128A11AF270A128A1101300A128A112D
:100F9800DF270A128A11D02F0A128A1198270A12FB
:100FA8008A110A128A11A3270A128A11D02FD02F68
:100FB8000A128A110028F200F22F720884000A121D
:100FC8008A1103200A128A110A128A11A3270A1207
:100FD8008A110130F1007108F207F22F72088400BB
:100FE8000A128A1103200A128A110038031DFD2FE4
:080FF800FE2FE12FFF2F08007E
:02400E007AFF37
:00000001FF
