:1000000002308A00022A0000FF00030E8301A100D3
:100010000A08A0008A010408A2007708A300780853
:10002000A4007908A5007A08A600831383128B1D0B
:100030001B280B1832288C308400801E21288C1A33
:100040003528220884002308F7002408F800250832
:10005000F9002608FA0020088A00210E8300FF0E0E
:100060007F0E09008A110A1246288A110A12612895
:100070000A108A100A118207C034F934A434B0344B
:10008000993492348234F834803490340B1C5D28D7
:100090008B1D5D28061A542806148614061586152D
:1000A000A70AA80A061E52282708023C031D5D283D
:1000B0000610861006118611A7010B108A110A126C
:1000C00021288C1A86168C1E63281A08AF0030303F
:1000D0002F02F63E03187D280A3E812806147D284B
:1000E00086147D2806157D2886157D2806107D2816
:1000F00086107D2806117D2886118C128A110A121D
:1001000021280A108A100A11820776286E28702882
:10011000722874287D287D2878287A287C288316E0
:100120001F1383121F179F1783169F1783121F1405
:1001300083161F109F141F159F150030F80083129F
:100140001F08C73978049F00A630F700F70BA628D0
:1001500000008A110A122C2A831688118312881132
:1001600083160812831208128316881283128812CB
:100170008A110A122F2A83168812831288123508D0
:10018000B6008030B800B7013708073C031CE828E8
:100190008316881183128811360838050319D5286B
:1001A0008316081283120816D928831608128312A0
:1001B00008128316881183128815DE28DF280000B4
:1001C00083168811831288110310B80CB70AC4284B
:1001D0008316881283128816080035308400831332
:1001E0000008031900290630F800F701F70BF6287C
:1001F000F80BF5287B30F700F70BFC28800BF32871
:1002000008003508F8013402031809293408F700FA
:100210001529F7010830B600B40DF70D350877023F
:100220000318F700F80DB60B0C2908008316081008
:1002300083120814831688108312881083160811FD
:10024000831208110A30B1003108B4000A30B50039
:1002500001217708B2003108B4000A30B50001214D
:100260007808B30032083820B400B500BB2033084A
:100270003820B400B500BB2030303107B40034085A
:100280000C1E402999000430B400FA30B500ED206E
:10029000B40B4529B108031D522967300C1E4E29A5
:1002A00099005429B10324298316081183120815D3
:1002B0008316881083128810831608108312081082
:1002C0000530B1003108B4000A30B50001217708CB
:1002D000B2003108B4000A30B50001217808B3003B
:1002E00032083820B400B500BB2033083820B400F1
:1002F000B500BB2030303107B40034080C1E7E2915
:1003000099000430B400FA30B500ED20B40B832915
:10031000B108031D902979300C1E8C29990092296F
:10032000B10362298316881083128814831608107B
:100330008312081083160811831208110230B100CD
:100340003108B4000A30B50001217708B200310845
:10035000B4000A30B50001217808B3003208382013
:10036000B400B500BB2033083820B400B500BB2072
:1003700030303107B40034080C1EBC299900043019
:10038000B400FA30B500ED20B40BC129B108031D4B
:10039000CE2972300C1ECA299900D029B103A02998
:1003A00008001F151F19D22983161E088312B100D9
:1003B00030303107AD002D08643C0318E6290617DC
:1003C00006108610061186111621012A06148614BD
:1003D00006158615061383168810831288140230BA
:1003E000B100FA30B500ED20B10BF1298316881069
:1003F000831288100230B100FA30B500ED20B10B45
:10040000FC29080003081F398300813083169900F6
:10041000A6309800903083129800AC0183161F1408
:100420009F141F159F1107309C008313C030831247
:100430008B0483168C1683128B048B158316011381
:100440001030860000308800F0308312860083165A
:100450008801831288018F2886120613AC289030F9
:10046000B500BB20C830B500ED20C030B500BB20C2
:10047000C830B500ED20AE012808033C0319432A1B
:100480002F086A3C031916212808043C03194B2A3B
:100490002F08663C0319D1212808053C031D522A68
:0A04A000A801532AD1213C2A630071
:02400E00723FFF
:00000001FF
;PIC16F877A
;CRC=D6EF  CREATED="20-Thg5-21 18:16"
