:100000000A128A11AE2D00308A000408840A820781
:10001000003441344434433420343A3420340034FE
:100B5C0083010A128A111A2E8316031387100710A9
:100B6C00003007180130860005140800F001F1016F
:100B7C0003307102E93003197002031CC62DC72D16
:100B8C00C92DD92DD92D0130F0070318F10A0030E9
:100B9C00F10703307102E93003197002031CD72DE1
:100BAC00D82DC92DD92D080002300A128A113B26E6
:100BBC000A128A1128300A128A113B260A128A114B
:100BCC000E300A128A113B260A128A1106300A12BA
:100BDC008A113B260A128A1180300A128A113B268E
:100BEC000A128A110800F6000C2E760884000A12EC
:100BFC008A1103200A128A110A128A1179260A1202
:100C0C008A110130F5007508F6070C2E7608840061
:100C1C000A128A1103200A128A110038031D172E9A
:100C2C00182EFB2D192E08000A128A11B2250A1251
:100C3C008A110A128A11DA250A128A1101300A1253
:100C4C008A11F9250A128A112B2E8C300A128A115C
:100C5C003B260A128A110A128A1149270A128A1192
:100C6C002B2E2B2E0A128A110028F4008312031348
:100C7C0007100F30F200720886057408F039F20084
:100C8C007208860487140A128A11BC250A128A116A
:100C9C008312031387100A128A11BC250A128A11B7
:100CAC000F30F20072088312031386057408F200E9
:100CBC0003300310F20DFF3E031D5F2E0310720D67
:100CCC00F039F3007308860487140A128A11BC25C4
:100CDC000A128A118312031387100A128A11BC2577
:100CEC000A128A110800F4008312031307140F3040
:100CFC00F200720886057408F039F2007208860456
:100D0C0087140A128A11BC250A128A118312031342
:100D1C0087100A128A11BC250A128A110F30F200B0
:100D2C0072088312031386057408F2000330031053
:100D3C00F20DFF3E031D9D2E0310720DF039F300D2
:100D4C007308860487140A128A11BC250A128A11A8
:100D5C008312031387100A128A11BC250A128A11F6
:100D6C000800790878040319BC2EBD2EF32EFD0162
:100D7C000314FD0DCD2E01300310F80DF90DFF3EBF
:100D8C00031DC22E0130FC007C08FD07CD2EF91F7F
:100D9C00D02ED12EC12ED32ED32E79087B02031D3B
:100DAC00D92E78087A02031CDC2EDD2EE42E78086E
:100DBC00FA027908031CFB03FB02E42E013003103A
:100DCC00F90CF80CFF3E031DE52E0130FD02031D4E
:100DDC00F02EF12ED32EF32EF32E7B08F901F9070A
:100DEC007A08F801F807FA2E0800F501F6017108E7
:100DFC0070040319022F032F412FF7010314F70D71
:100E0C00132F01300310F00DF10DFF3E031D082FC1
:100E1C000130F4007408F707132FF11F162F172F4A
:100E2C00072F192F192F01300310F50DF60DFF3E6A
:100E3C00031D1A2F71087302031D262F70087202EE
:100E4C00031C292F2A2F322F7008F2027108031C61
:100E5C00F303F3027514322F01300310F10CF00C74
:100E6C00FF3E031D332F0130F702031D3E2F3F2F92
:100E7C00192F412F412F7608F101F1077508F00168
:100E8C00F007482F0800C030831603139F008530ED
:100E9C00831203139F00522F1F19552F562F522FB9
:100EAC00572F831603131E0883120313A000A101EE
:100EBC001E08A200A3012208A300A20120082204FC
:100ECC00A40021082304A5000330F0000030F10039
:100EDC002508F301F3072408F201F2070A128A111C
:100EEC00FB260A128A117008FF3E83120313A4001A
:100EFC0071080318013EFF3EA500E830F0000330F6
:100F0C00F1002508F301F3072408F201F2070A1295
:100F1C008A11FB260A128A117008303E0A128A11B5
:100F2C0079260A128A110A30F8000030F900643070
:100F3C00F0000030F100831203132508F301F307CE
:100F4C002408F201F2070A128A11FB260A128A11EE
:100F5C007108FB01FB077008FA01FA070A128A11E3
:100F6C00B7260A128A117808303E0A128A1179269D
:100F7C000A128A110A30F8000030F9000A30F00029
:100F8C000030F100831203132508F301F307240842
:100F9C00F201F2070A128A11FB260A128A11710851
:100FAC00FB01FB077008FA01FA070A128A11B7262F
:100FBC000A128A117808303E0A128A1179260A120E
:100FCC008A110A30F8000030F90083120313250847
:100FDC00FB01FB072408FA01FA070A128A11B7264B
:100FEC000A128A117808303E0A128A1179260A12DE
:040FFC008A1108004E
:02400E007AFF37
:00000001FF
