:100000000A128A113E2F00308A000408840A8207EF
:1000100000344C34433444342034753479346634F9
:0A0020006B34753479346734003412
:100E7C00F301F40183010A128A11442F0A128A1118
:100E8C007E270A128A1183160313880101300A1275
:100E9C008A115D270A128A11831203138801562FB7
:100EAC00FF308800562F562F0A128A110028F200A4
:100EBC00702F720884000A128A1103200A128A11F8
:100ECC000A128A11D0270A128A110130F100710816
:100EDC00F207702F720884000A128A1103200A127A
:100EEC008A110038031D7B2F7C2F5F2F7D2F08006C
:100EFC0083160313071187100710003007180130F1
:100F0C00860038300A128A11A0270A128A110C3076
:100F1C000A128A11A0270A128A1106300A128A11A3
:100F2C00A0270A128A1180300A128A11A0270A12ED
:100F3C008A110800F0007008831203138600071052
:100F4C0087100715F301F4017408803AFF00833011
:100F5C007F02031DB32FE8307302031CB62FB72F8B
:100F6C00B92FCC2FCC2F0130F3070318F40A003023
:100F7C00F4077408803AFF0083307F02031DC82FEA
:100F8C00E8307302031CCB2FCC2FB92F8312031321
:100F9C0007110800F0007008831203138600071471
:100FAC0087100715F301F4017408803AFF008330B1
:100FBC007F02031DE32FE8307302031CE62FE72F9B
:100FCC00E92FFC2FFC2F0130F3070318F40A003033
:100FDC00F4077408803AFF0083307F02031DF82F5A
:100FEC00E8307302031CFB2FFC2FE92F8312031331
:040FFC0007110800D1
:00000001FF
