:1000000003308A001D2B0000C822202AC827CE23D7
:100010002027C82ACE230000D434ED32A037753A09
:1000200021004334E531EB39F536A02272396F39BE
:100030002100CE372039E539F037EE3965006639D1
:10004000EF36203AE832A0396537F33772004C308A
:1000500084008313000803193A280230F800F701DE
:10006000F70B3028F80B2F289730F700F70B3628BE
:10007000800B2D28080052183F2888114028881529
:10008000831688118312D2184728081248280816A8
:1000900083160812831252194F2888125028881686
:1000A000831688128312D219572808135828081764
:1000B00083160813000083120815831608116028A0
:1000C0006128831208118316081183120800D301D6
:1000D000831688150030831288190130D3048316E3
:1000E000081600308312081A0130F7000310F70DCC
:1000F0007708D3048316881600308312881A0130DB
:10010000F700F70DF70DFC30F7057708D3048316D9
:10011000081700308312081B0130F700F70DF70DA8
:10012000F70DF830F7057708D3045308F8000800F6
:1001300083160811081088108312081083160810FF
:1001400088150816881608178312881483168810D5
:10015000000083120815831608110000831267201F
:100160007808D200081183160811000083120815C0
:1001700083160811BB28831267207808D100081164
:100180008316081188110812881208138312520E60
:10019000F700F030F70577085104F8007808D1002F
:1001A000D11FD4288316A028CF08031DD9280810F2
:1001B000DA280814831608100000831288108316AA
:1001C0008810000083120811831608118312500E44
:1001D000D1000F30D1055108D2003B2050080F3913
:1001E000D100D2003B2008002830C8000C30C900E4
:1001F0000130CA000630CB000811831608118312A3
:10020000081083160810831288108316881088112E
:100210000812881208130811081088100F30831272
:10022000CC0027200130C7004708033C031C2029CD
:100230000330D2003B200530CC002720C70A142908
:100240000230D2003B200530CC002720C7014708F0
:10025000033C031C372948304707840083130008F8
:10026000CC00CF014C08D0009820C70A27298A115A
:100270000A126E2B4C0B3D2940294030CD004129FC
:10028000CD0101304B02CD074D088038CE00CF01A3
:100290004E08D000982008004A08073A03195A2946
:1002A0000B3A03195F29063A03196729023A031921
:1002B0006D2972290130CB00CC003A217729CF017A
:1002C0000130D00098200230CC002720772901305F
:1002D000CB000230CC003A217729CF011030D0007A
:1002E000982077290130CF004A08D00098200800D4
:1002F0000B08C7008B13831603178C170C14000010
:10030000000083120313C71B8B1703170C087F39D8
:100310000319CC290313C70003170D080313C800E2
:1003200003170F080313C9004708CA004C214808E7
:1003300003178D000313490803178F0003130B08DD
:10034000CA008B13831603178C170C1400000000CF
:1003500083120313CA1B8B1703170C0D0E0D7F3965
:100360000319CC290313C70003170D080313C80092
:1003700003170F080313C9004708CA004C21480897
:1003800003178D000313490803178F008D0A031903
:100390008F0A031378290317031308008316051027
:1003A0000510831205101930CC0027208316051084
:1003B000831205141330F700F70BDC29DF298316AD
:1003C000051483128A110A12872BC901411CE829DE
:1003D000C7014708073C031C362AC80183160514C9
:1003E00083120518FC29C80A4808643C0318FA2936
:1003F0004114FC29FB29EE291330F700F70BFE29E5
:10040000012A8316051483120518172A4708073C8A
:10041000CA000130F7004A08F8000319132A031034
:10042000F70DF80B0F2A7708FF3AC905342A470859
:10043000073CCA000130F7004A08F8000319242AD3
:100440000310F70DF80B202A7708C904831605144A
:100450008312051C342AC80A4808643C0318322A4F
:100460004114342A332A262AC70AE9294908F80000
:1004700008004808F80147020318412A4708F70016
:100480004D2AF7010830C900C70DF70D480877025B
:100490000318F700F80DC90B442A08008008031957
:1004A000632AC8010408C7004810831B48140008C9
:1004B000CA004C2147088400831348188317840A14
:1004C0000319850A4E2A08001A30F700F70B662A2E
:1004D00000008316051483120518812A3430F700B2
:1004E000F70B702A732A0000831605148312051C6B
:1004F000812A2030F700F70B7B2A7E2A000001308A
:10050000F800F8080319FF2AE5217808C400E5215E
:100510007808C500E5217808C200E5217808C30005
:10052000E5217808C600411CA52A0C30CA004C21E0
:100530000530CB000130CC003A210C3003178D0080
:1005400000308F0003137821FE2A45084407420734
:1005500043074602031DF02A4208C7000A30C800BC
:10056000392230307807A8004208C7000A30C80096
:10057000392230307707A9004308C7000A30C80085
:10058000392230307807AB004408C7000A30C80071
:10059000392230307807B8004408C7000A30C80054
:1005A000392230307707B9004508C7000A30C80043
:1005B000392230307807BB00DF30AC000130CB008F
:1005C000CC003A212130840083134E220130CB002D
:1005D0000230CC003A213130840083134E22FE2AAF
:1005E0000C30CA004C210130CB00CC003A21113034
:1005F00003178D0000308F00031378211A2B0C3065
:10060000CA004C210330CB000130CC003A21193014
:1006100003178D0000308F00031378210130CB00C9
:100620000230CC003A211F3003178D0000308F00BC
:10063000031378218A110A12882B03081F398300BB
:10064000A00183161F149F141F159F1107309C00D3
:10065000831354308312A1006530A2006D30A300D3
:100660007030A4002030A5003D30A6002030A70047
:100670003030A800A9002E30AA003030AB00203066
:10068000AC004330AD002030AE00AF00B0015230BE
:10069000B1004830B2002030B300B400B5003D30A6
:1006A000B6002030B7003030B800B9002E30BA00A4
:1006B0003030BB002030BC002530BD002030BE00F3
:1006C000BF00C001C0308B048B150F30831686002D
:1006D00083128600831601138312F4280C30CA009B
:1006E0004C210130CB00CC003A21043003178D009F
:1006F00000308F00031378210430C700FA30CC009B
:100700002720C70B7E2B200886004110CE29642AA3
:100710000430C700FA30CC002720C70B8A2B832B6C
:02072000630074
:02400E00713F00
:00000001FF
;PIC16F877A
;CRC=879E  CREATED="16-Thg3-21 16:58"
