:060000000A128A11122809
:10000800FE00030EF3000408F4000A08F50083124A
:1000180003137F08F6000A128A114E280A128A1161
:10002800232A00308A000408840A820700345434E2
:1000380069346D3465347234203430342034693492
:100048006E347434653472347534703474340034F6
:10005800543469346D346534723420343134203486
:1000680069346E347434653472347534703474346D
:100078000034543469346D34653472342034323485
:10008800203469346E3474346534723475347034A1
:10009800743400340B1D512852288C280130F7077E
:1000A8000318F80A0030F8072A3077067804031D89
:1000B8005E285F288A2880300A128A1188210A124D
:1000C8008A1101300A128A11E8210A128A11F701ED
:1000D800F801FB01FC01C3307C02513003197B029B
:1000E800031C772878287A288A288A280130FB0771
:1000F8000318FC0A0030FC07C3307C025130031996
:100108007B02031C882889287A288A280B11112940
:100118000C1C8F289028CC280130A0070318A10AAE
:100128000030A107543020062104031D9C289D2877
:10013800CA28C0300A128A1188210A128A1112307C
:100148000A128A11E8210A128A1183120313A001E4
:10015800A101FB01FC01C3307C02513003197B0271
:10016800031CB728B828BA28CA28CA280130FB07B0
:100178000318FC0A0030FC07C3307C025130031915
:100188007B02031CC828C928BA28CA280C101129C0
:100198008C1CCF28D02811290130A2070318A30AE4
:1001A8000030A30707302306031DDC28E9302206A8
:1001B800031DDF28E0280D2980300A128A118821C2
:1001C8000A128A1123300A128A11E8210A128A11A6
:1001D80083120313A201A301FB01FC01C3307C02BB
:1001E800513003197B02031CFA28FB28FD280D292E
:1001F8000D290130FB070318FC0A0030FC07C33047
:100208007C02513003197B02031C0B290C29FD28A1
:100218000D298C101129112911297608831203132D
:10022800FF0075088A0074088400730E8300FE0EB0
:100238007E0E09008316031388010818242928292B
:100248008316031307152B298316031307110719A0
:100258002E2932298316031387143529831603138D
:100268008710871838293C298316031307143F2958
:1002780083160313071038300A128A1158210A12FC
:100288008A110E300A128A1158210A128A11063070
:100298000A128A1158210A128A1180300A128A1108
:1002A80058210A128A11080083120313A400240893
:1002B8008800071087100715F901FA017A08803AB3
:1002C800FF0083307F02031D6B29E8307902031C8D
:1002D8006E296F297129842984290130F9070318A7
:1002E800FA0A0030FA077A08803AFF0083307F0262
:1002F800031D8029E8307902031C83298429712988
:100308008312031307110800F00070088312031307
:100318008800071087100715F901FA017A08803A52
:10032800FF0083307F02031D9B29E8307902031CFC
:100338009E299F29A129B429B4290130F907031856
:10034800FA0A0030FA077A08803AFF0083307F0201
:10035800031DB029E8307902031CB329B429A12967
:100368008312031307110800F000700883120313A7
:100378008800071487100715F901FA017A08803AEE
:10038800FF0083307F02031DCB29E8307902031C6C
:10039800CE29CF29D129E429E4290130F907031806
:1003A800FA0A0030FA077A08803AFF0083307F02A1
:1003B800031DE029E8307902031CE329E429D12947
:1003C8008312031307110800F200FB297208840046
:1003D8000A128A1115200A128A110A128A11B821E2
:1003E8000A128A110130F1007108F207FB2972081C
:1003F80084000A128A1115200A128A110038031D76
:10040800062A072AEA29082A08000A128A111E2140
:100418000A128A110A128A1131220A128A110A1240
:100428008A113C220A128A1101300A128A115821B3
:100438000A128A11182A182A0A128A111228F70190
:10044800F801F901FA01FB01FC01A001A101A201D7
:10045800A30183010A128A11092A0730831603139C
:10046800810001308312031390007C309200080051
:0E047800E0308B000330831603138C00080065
:00000001FF
