:060000000A128A11AD2F67
:100F5A0083010A128A11B12F831603138601013005
:100F6A00831203139000B92FFF30831203138600F4
:100F7A000A128A11CF270A128A11831203138601D1
:100F8A000A128A11CF270A128A11B92FB92F0A1207
:100F9A008A110028F001F1017108803AFF008030BF
:100FAA007F02031DDA2F2A307002031CDD2FDE2F89
:100FBA00E02FFF2FFF2F0130831203138E008F00C3
:100FCA00E62F0C1CE92FEA2FE62F0C100130F00750
:100FDA000318F10A0030F1077108803AFF008030E7
:100FEA007F02031DFA2F2A307002031CFD2FFE2FE9
:060FFA00E02FFF2F0800AC
:00000001FF
